:100000000C9434000C943E000C943E000C943E0082
:100010000C943E000C943E000C943E000C943E0068
:100020000C943E000C943E000C943E000C943E0058
:100030000C943E000C943E000C943E000C943E0048
:100040000C943E000C943E000C943E000C943E0038
:100050000C943E000C943E000C943E000C943E0028
:100060000C943E000C943E0011241FBECFEFD8E04C
:10007000DEBFCDBF0E9440000C9480000C940000B5
:1000800084B18C6384B961E070E085E090E045B1B3
:100090009B01082E01C0220F0A94EAF7342F322B5D
:1000A00035B94FEF52E5E7E041505040E040E1F70D
:1000B00000C0000035B12095232325B90197823077
:1000C000910529F782E090E045B19B01082E01C01F
:1000D000220F0A94EAF7342F322B35B94FEF52E54D
:1000E000E7E041505040E040E1F700C0000035B18A
:1000F0002095232325B901968530910529F7C5CF91
:04010000F894FFCFA1
:00000001FF
