:100000000C9434000C943E000C943E000C943E0082
:100010000C943E000C943E000C943E000C943E0068
:100020000C943E000C943E000C943E000C943E0058
:100030000C943E000C943E000C943E000C943E0048
:100040000C943E000C943E000C943E000C943E0038
:100050000C943E000C943E000C943E000C943E0028
:100060000C943E000C943E0011241FBECFEFD8E04C
:10007000DEBFCDBF0E9440000C947D000C940000B8
:100080008FE384B961E070E085E090E045B19B01C9
:10009000082E01C0220F0A94EAF7342F322B35B90B
:1000A0004FEF51EEE4E041505040E040E1F700C036
:1000B000000035B12095232325B9019739F780E059
:1000C00090E045B19B01082E01C0220F0A94EAF787
:1000D000342F322B35B94FEF51EEE4E04150504010
:1000E000E040E1F700C0000035B12095232325B999
:0E00F00001968530910529F7C7CFF894FFCF10
:00000001FF
