:100000000C9434000C943E000C943E000C943E0082
:100010000C943E000C943E000C943E000C943E0068
:100020000C943E000C943E000C943E000C943E0058
:100030000C943E000C943E000C943E000C943E0048
:100040000C943E000C943E000C943E000C943E0038
:100050000C943E000C943E000C943E000C943E0028
:100060000C943E000C943E0011241FBECFEFD8E04C
:10007000DEBFCDBF0E9440000C945E000C940000D7
:10008000569A84B5836884BD85B5836085BD80E05C
:1000900087BDEFE3FCE93197F1F700C000008F5F07
:1000A0008F3FB1F787BD863030F0EFE3FCE9319741
:1000B000F1F700C000008150A9F7E9CFF894FFCF15
:00000001FF
