:100000000C9434000C943E000C943E000C943E0082
:100010000C943E000C943E000C943E000C943E0068
:100020000C943E000C943E000C943E000C943E0058
:100030000C943E000C943E000C943E000C943E0048
:100040000C943E000C943E000C943E000C943E0038
:100050000C943E000C943E000C943E000C943E0028
:100060000C943E000C943E0011241FBECFEFD8E04C
:10007000DEBFCDBF0E9452000C94A8000C9400007B
:100080009695982F8827979587959C0140E050E09A
:1000900060E074E284EF90E00E9486002150310914
:1000A00027BD0895569A84B5836884BD85B583605D
:1000B00085BD3BE12AE695E38CE737BD4FEF59E676
:1000C00068E1415050406040E1F700C0000027BDAA
:1000D0004FEF59E668E1415050406040E1F700C001
:1000E000000097BD4FEF59E668E141505040604035
:1000F000E1F700C0000087BD4FEF59E668E14150CD
:1001000050406040E1F700C00000D7CFA1E21A2EB6
:10011000AA1BBB1BFD010DC0AA1FBB1FEE1FFF1FAB
:10012000A217B307E407F50720F0A21BB30BE40BFB
:10013000F50B661F771F881F991F1A9469F7609542
:100140007095809590959B01AC01BD01CF010895FC
:04015000F894FFCF51
:00000001FF
