:100000000C9434000C943E000C943E000C943E0082
:100010000C943E000C943E000C943E000C943E0068
:100020000C943E000C943E000C943E000C943E0058
:100030000C943E000C943E000C943E000C943E0048
:100040000C943E000C943E000C943E000C943E0038
:100050000C943E000C943E000C943E000C943E0028
:100060000C943E000C943E0011241FBECFEFD8E04C
:10007000DEBFCDBF0E9440000C945A000C940000DB
:10008000579884B18F6384B920E090E089B180787B
:100090002817E1F32FEF33EC49E021503040404086
:1000A000E1F700C00000811102C0282FEFCF9F5F51
:0800B00095B9FBCFF894FFCFD6
:00000001FF
