:100000000C9434000C9440000C943E000C943E0080
:100010000C943E000C943E000C943E000C943E0068
:100020000C943E000C943E000C943E000C943E0058
:100030000C943E000C943E000C943E000C943E0048
:100040000C943E000C943E000C943E000C943E0038
:100050000C943E000C943E000C943E000C943E0028
:100060000C943E000C943E0011241FBECFEFD8E04C
:10007000DEBFCDBF0E945B000C946C000C940000AE
:100080001F920F920FB60F9211242F938F939F936D
:100090002D982FEF83ED90E3215080409040E1F7C1
:1000A00000C000002D9A9F918F912F910F900FBE4D
:1000B0000F901F9018958AB184708AB9259A809103
:1000C00069008260809369008091690081608093FB
:0C00D00069007894E89AFFCFF894FFCF05
:00000001FF
