:100000000C9434000C9448000C9446000C94460068
:100010000C9446000C9446000C9446000C94460048
:100020000C9446000C9446000C9446000C94460038
:100030000C9446000C9446000C9446000C94460028
:100040000C9446000C9446000C9446000C94460018
:100050000C9446000C9446000C9446000C94460008
:100060000C9446000C94460011241FBECFEFD8E03C
:10007000DEBFCDBF21E0A0E0B1E001C01D92A13004
:10008000B207E1F70E9478000C947B000C9400000A
:100090001F920F920FB60F9211242F938F939F935D
:1000A000809100018F5F809300018091000185B9EC
:1000B0002FEF83ED90E3215080409040E1F700C0A6
:1000C00000009F918F912F910F900FBE0F901F9066
:1000D000189584B18F6384B95098E9E6F0E0808187
:1000E0008260808380818E7F80837894E89A0895EF
:0A00F0000E946900FFCFF894FFCFD3
:00000001FF
