:100000000C9434000C9448000C9467000C94460047
:100010000C9446000C9446000C9446000C94460048
:100020000C9446000C9446000C9446000C94460038
:100030000C9446000C9446000C9446000C94460028
:100040000C9446000C9446000C9446000C94460018
:100050000C9446000C9446000C9446000C94460008
:100060000C9446000C94460011241FBECFEFD8E03C
:10007000DEBFCDBF21E0A0E0B1E001C01D92A13004
:10008000B207E1F70E949F000C94AB000C940000B3
:100090001F920F920FB60F9211242F938F939F935D
:1000A00080910001880F8093000185B92FEF8DE2C8
:1000B00092E2215080409040E1F700C000009F9103
:1000C0008F912F910F900FBE0F901F9018951F9238
:1000D0000F920FB60F9211242F938F939F938091BD
:1000E0000001880F81608093000185B92FEF8DE2B8
:1000F00092E2215080409040E1F700C000009F91C3
:100100008F912F910F900FBE0F901F9018958AB16D
:10011000837F8AB984B18F6384B9E9E6F0E0808196
:100120008460808380818860808380818160808317
:100130008081826080837894E89AE99A08950E9489
:1001400087002FEF89E698E1215080409040E1F749
:0A01500000C00000F6CFF894FFCFC6
:00000001FF
