:100000000C9434000C9446000C9446000C9446006A
:100010000C9446000C9446000C9446000C94460048
:100020000C9446000C9446000C9446000C94460038
:100030000C9446000C9465000C9446000C94460009
:100040000C9448000C9446000C9446000C94460016
:100050000C9446000C9446000C9446000C94460008
:100060000C9446000C94460011241FBECFEFD8E03C
:10007000DEBFCDBF21E0A0E0B1E001C01D92A23003
:10008000B207E1F70E9477000C9496000C940000F0
:100090001F920F920FB60F9211248F939F9380910E
:1000A00001018F5F8093010180910101893130F05E
:1000B00095B180E2892785B9109201019F918F91B6
:1000C0000F900FBE0F901F9018951F920F920FB6B2
:1000D0000F9211248F939F9395B180E1892785B961
:1000E0009F918F910F900FBE0F901F901895259A9A
:1000F000249A2D9A2C9A83E886BD14BC84E085BD91
:100100002EEE35E830938500209384001092800015
:100110008093810080916E00816080936E00809159
:100120006F00816080936F007894FFCFF894FFCFC9
:00000001FF
